:100000000C9463000C944F1F0C94281F0C948B00CD
:100010000C948B000C948B000C948B000C94A921F5
:100020000C948B000C948B000C948B000C94ED20A2
:100030000C948B000C948B000C948B000C948B0014
:100040000C94DE1E0C948B000C949C1F0C94761F59
:100050000C948B000C948B000C948B000C948B00F4
:100060000C94CE1F0C948B0000000000240027008D
:100070002A0000000000250028002B0000000008D6
:10008000000201000003040700000000000000005F
:1000900000000000230026002900040404040404D6
:1000A0000404020202020202030303030303010227
:1000B00004081020408001020408102001020408F6
:1000C0001020AE22A93311241FBECFEFD8E0DEBF2F
:1000D000CDBF12E0A0E0B1E0E4E7F7E702C0059091
:1000E0000D92AC30B107D9F725E0ACE0B2E001C029
:1000F0001D92A139B207E1F710E0C2E6D0E004C0DA
:100100002197FE010E94C936C136D107C9F70E9466
:10011000B0230C94AD3B0C940000CF92DF92EF9291
:10012000FF92DC01A43F81E0B807D4F5A53BB105FF
:1001300014F0A4EBB0E0409135052DE730E0241B2E
:10014000310947FD3395220F331F220F331F6901F9
:10015000330FEE08FF084091360521E732E0241BFB
:10016000310947FD3395220F331F220F331F032E12
:10017000000C440B550B2C193D094E095F09B7FFC4
:1001800002C0B0E0A0E00E94FB3424EB30E040E08D
:1001900050E00E94D134C20ED31EE41EF51ED601DB
:1001A000E0913405EC3080F5209135058DE790E045
:1001B000821B910927FD9395880F991F880F991F1E
:1001C000A817B90784F02091360581E792E0821BD9
:1001D000910927FD9395880F991F880F991FA817DC
:1001E000B9070CF4CD010297880F991F4FB7F89407
:1001F0002E2F30E0F901EE0FFF1FE20FF31FE15F3A
:10020000FA4F928381834FBFFF90EF90DF90CF90A2
:10021000089520E0DC0160FF03C001C02D932D9301
:100220006250E0F77040D0F70895833081F028F4F1
:10023000813099F08230A9F008958730A9F0883094
:10024000C9F08430B1F4809180008F7D03C080912B
:1002500080008F7780938000089584B58F7784BD68
:10026000089584B58F7DFBCF8091B0008F77809308
:10027000B00008958091B0008F7DF9CF1F93CF9388
:10028000DF93282F30E0F901E458FF4F8491F90102
:10029000E255FF4FD491F901E656FF4FC491CC23AC
:1002A000A9F0162F81110E941501EC2FF0E0EE0F3E
:1002B000FF1FEE58FF4FA591B4918FB7F894EC91C2
:1002C000111108C0D095DE23DC938FBFDF91CF9151
:1002D0001F910895DE2BF8CFCF93DF9390E0FC01C0
:1002E000E255FF4F249186569F4FFC01849188234D
:1002F000C9F090E0880F991FFC01E859FF4FA591C4
:10030000B491FC01EE58FF4FC591D49161110DC01D
:100310009FB7F8948C91209582238C938881282311
:1003200028839FBFDF91CF910895623051F49FB72A
:10033000F8943C91822F809583238C93E8812E2B17
:10034000EFCF8FB7F894EC912E2B2C938FBFEACF81
:100350000F931F93CF93909134059C3008F05BC0AE
:100360008B01C82F61E00E946C0180913405282F19
:1003700030E0F901EE0FFF1FE20FF31FE15FFA4FCC
:10038000CF739081907CC92BC0831092350524ECEB
:1003900039E0201B310B359527953595279520930E
:1003A00036052CE0622F0E949536829FB001112401
:1003B00030E020E0AB01420F531FFA01EE0FFF1FA8
:1003C000E40FF51FE15FFA4F908196FD16C02F5F95
:1003D0003F4F2C30310571F781110FC01092800012
:1003E00082E0809381001092850010928400B19A7F
:1003F00080916F00826080936F00E09134058E2FB2
:1004000090E0FC01EE0FFF1FE80FF91FE15FFA4FCC
:1004100080818064808380913405CF911F910F91FA
:10042000089564EC79E00C94A8011F93CF93DF93B7
:10043000182FEB0161E00E946C01209739F460E015
:10044000812FDF91CF911F910C943E01CF3FD105B9
:1004500011F461E0F5CFE12FF0E0E458FF4FE491B3
:10046000E33031F140F4E130B1F0E230E1F0C03896
:10047000D1057CF7E4CFE73029F1E83059F1E430D9
:10048000B1F780918000806280938000D0938B00D0
:10049000C0938A0004C084B5806884BDC7BDDF9165
:1004A000CF911F91089584B5806284BDC8BDF7CFF8
:1004B00080918000806880938000D0938900C093F1
:1004C0008800EDCF8091B00080688093B000C09329
:1004D000B300E5CF8091B00080628093B000C093FC
:1004E000B400DDCF8E50806480937C0080917A00D0
:1004F000806480937A0080917A0086FDFCCF8091A1
:1005000078009091790008953FB7F8948091E302C4
:100510009091E402A091E502B091E60226B5A89B75
:1005200005C02F3F19F00196A11DB11D3FBFBA2F85
:10053000A92F982F8827BC01CD01620F711D811D45
:10054000911D42E0660F771F881F991F4A95D1F7CA
:1005500008958F929F92AF92BF92CF92DF92EF92C7
:10056000FF924B015C010E9484026B017C010E949E
:1005700084026C197D098E099F09683E73408105CC
:100580009105A8F321E0821A9108A108B10888EE2C
:10059000C80E83E0D81EE11CF11C81149104A10453
:1005A000B10429F7FF90EF90DF90CF90BF90AF900C
:1005B0009F908F9008952FB7F8946091DF0270910B
:1005C000E0028091E1029091E2022FBF0895CF9264
:1005D000DF92EF92FF920F931F930E94DB02009134
:1005E00062031091630320916403309165036B01F2
:1005F0007C01C01AD10AE20AF30AA701960121156B
:1006000031054105510521F421E030E040E050E0A2
:10061000E0916003F091610388EE93E0E89FB00100
:10062000E99F700DF89F700D1124072E000C880BA8
:10063000990B0E943A3530931104209310041092C4
:100640006103109260030E94DB0260936203709367
:10065000630380936403909365031F910F91FF9050
:10066000EF90DF90CF900895CF92DF92EF92FF92BC
:10067000CF93DF93EC01072E000C880B990B0E949F
:10068000B4336B017C0120E030E040E45FE30E9482
:10069000133420E030E048E452E40E94D8350E9450
:1006A0004A36C617D707D4F020E030E040EA5FE3CF
:1006B000C701B6010E94133420E030E048E452E460
:1006C0000E94D83520E030E040E85FE30E946C35BE
:1006D0000E944A3621E06C177D070CF420E0822F3F
:1006E00090E0DF91CF91FF90EF90DF90CF90089551
:1006F0008F929F92AF92BF92CF92DF92EF92FF9232
:100700000F931F93CF93DF93FC0120813181E09100
:100710000503F091060301E010E02E173F070CF0EF
:1007200043C0D901AA0FBB1FE0910303F09104035A
:10073000EA0FFB1FA080B180890100951095017020
:10074000112720FD23C02CE93FEFEA016B017C015A
:100750004901840E951EB401C5010E943403892B02
:10076000C1F48C0E9D1EB401C5010E943403892B77
:1007700049F5BE01680D791DC5010E94340323E0CF
:1007800030E0892B41F40FEF1FEF0EC024E630E07C
:10079000DCCF21E030E0F601808191810196821763
:1007A00093079CF491838083C801DF91CF911F91BF
:1007B0000F91FF90EF90DF90CF90BF90AF909F9000
:1007C0008F90089522E030E0E6CF11821082F70189
:1007D000808191810196E6CF80E991E008950895A6
:1007E00008950895AF92BF92CF92DF92EF92FF9259
:1007F0000F931F93CF93DF936C017B018B01040F49
:10080000151FEB015E01AE18BF08C017D10759F0E4
:100810006991D601ED91FC910190F081E02DC60126
:100820000995892B79F7C501DF91CF911F910F9120
:10083000FF90EF90DF90CF90BF90AF900895FC01B4
:10084000448155816081718186E693E00C94F203C6
:10085000FC01538D448D252F30E0842F90E0821BC6
:10086000930B541710F0CF96089501970895FC014B
:10087000918D828D981761F0A28DAE0FBF2FB11DA3
:100880005D968C91928D9F5F9F73928F90E00895FB
:100890008FEF9FEF0895FC01918D828D981731F0B5
:1008A000828DE80FF11D858D90E008958FEF9FEF09
:1008B0000895FC01918D228D892F90E0805C9F4FDF
:1008C000821B91098F739927089586E693E00E9411
:1008D000590421E0892B09F420E0822F089580E05B
:1008E00090E0892B29F00E94650481110C9400008E
:1008F0000895FC01A48DA80FB92FB11DA35ABF4FB5
:100900002C91848D90E001968F739927848FA6890E
:10091000B7892C93A089B1898C91837080648C9362
:10092000938D848D981306C00288F389E02D808111
:100930008F7D80830895EF92FF920F931F93CF9343
:10094000DF93EC0181E0888F9B8D8C8D98131AC00A
:10095000E889F989808185FF15C09FB7F894EE89F1
:10096000FF896083E889F98980818370806480834E
:100970009FBF81E090E0DF91CF911F910F91FF9099
:10098000EF900895F62E0B8D10E00F5F1F4F0F7341
:100990001127E02E8C8D8E110CC00FB607FCFACFFC
:1009A000E889F989808185FFF5CFCE010E9479041D
:1009B000F1CFEB8DEC0FFD2FF11DE35AFF4FF082CD
:1009C0009FB7F8940B8FEA89FB8980818062CFCF33
:1009D000CF93DF93EC01888D8823B9F0AA89BB8976
:1009E000E889F9898C9185FD03C0808186FD0DC061
:1009F0000FB607FCF7CF8C9185FFF2CF808185FF82
:100A0000EDCFCE010E947904E9CFDF91CF91089517
:100A100020916202260F3327331F21323105ECF477
:100A200020913003FC0190E080E0243069F082E006
:100A30000895A09162022191AC014E5B5D4FA40F1D
:100A4000B52FB11D2C930196861798F38091620201
:100A5000680F6093620280E0089581E0089510922B
:100A6000300381E080932F0310920A0361E082E15A
:100A70000E943E0161E083E10E943E01E9EBF0E06B
:100A800080818E7F808380818D7F808388E48093C6
:100A9000B80085E48093BC000895CF93DF9391E084
:100AA000909341028823B9F0C091B800D091BA0068
:100AB0008091BC008A7B8093BC0060E082E10E9450
:100AC0003E0160E083E10E943E010E942F05D09329
:100AD000BA00C093B800DF91CF9108958F929F9292
:100AE000AF92BF92CF92DF92EF92FF920F931F933C
:100AF000CF93DF93D0915903D13208F0D7C0182F8C
:100B0000C09158030E9484026B017C0180913003E4
:100B100081116BC082E08093300310932F038FEF1D
:100B200080932E0310922D03D0932C03A8E3B3E0FF
:100B3000ECE0F3E080E0D81391C010920B038091B9
:100B40000B03CC0FC82BC0930B0380910A03813099
:100B500009F088C010920A030E9484026B017C0194
:100B600080910B038093BB008091320390913303FB
:100B7000A0913403B0913503892B8A2B8B2BA1F0E4
:100B80000E948402009132031091330320913403B8
:100B9000309135036C197D098E099F0906171707D7
:100BA0002807390708F442C08091BC0083FDD8CFE4
:100BB00085EC8093BC000E9484026B017C018091D3
:100BC0003003823009F450C080912E038F3F09F426
:100BD0006FC080912E03803209F46CC080912E0387
:100BE000803309F469C084E026C08091320390917B
:100BF0003303A0913403B0913503892B8A2B8B2BBF
:100C000009F484CF0E9484028090320390903303D1
:100C1000A0903403B09035036C197D098E099F09AB
:100C200086169706A806B90608F070CF80913103A2
:100C30000E944D0585E010923703109259031092DF
:100C40003603DF91CF911F910F91FF90EF90DF90CE
:100C5000CF90BF90AF909F908F9008959D9191936A
:100C60008F5F69CF85EEA5CF8091320390913303DA
:100C7000A0913403B0913503892B8A2B8B2B09F477
:100C80009ECF0E9484020091320310913303209181
:100C90003403309135036C197D098E099F090617BD
:100CA00017072807390708F08ACFC0CF81E0C3CFE4
:100CB00080E0C1CF82E0BFCF83E0BDCF0895E09157
:100CC0008A0280918902E81730F4F0E0EF5DFD4F71
:100CD000808190E008958FEF9FEF089590918A02B0
:100CE000809189022FEF3FEF981748F4E92FF0E049
:100CF000EF5DFD4F208130E09F5F90938A02C90134
:100D000008958091890290918A02891B990B089518
:100D1000CF92DF92EF92FF920F931F93CF93DF93C7
:100D20007C01CB018A0120913603222389F0EB015B
:100D30006B01C40ED51ECC15DD0569F06991D70194
:100D4000ED91FC910190F081E02DC7010995F3CF61
:100D5000642F0E940805C801DF91CF911F910F9168
:100D6000FF90EF90DF90CF900895CF93DF931F9285
:100D7000CDB7DEB76983209136032223F9F02091A5
:100D80005903203258F021E030E0FC013383228304
:100D900090E080E00F90DF91CF910895809137032C
:100DA000E82FF0E0E85CFC4F998190838F5F80939F
:100DB00037038093590381E090E0ECCF61E0CE01EE
:100DC00001960E940805F7CFCF93DF93EA0191E0E7
:100DD000909336038093580310923703109259036F
:100DE00083E094E00E94B506688183E094E00E946D
:100DF000B50681E00E946E0591E0811190E0892F97
:100E0000DF91CF91089590E080E008950F931F93B4
:100E1000CF93DF9320911F022F5F322F37703093D3
:100E20001F0220FF2BC020E831FD2064347009F040
:100E30002062205FFC01EC01239600E011E0648554
:100E4000662329F070E0C8010E94B5366F5F6187A4
:100E5000322F369F030E30E0311D1124311110C0A6
:100E60001682662311F0615061873196EC17FD07F9
:100E700031F7DF91CF911F910F91089520E0D4CFEA
:100E800031503683EECF4F925F926F927F928F9266
:100E9000AF92BF92CF92DF92EF920F931F93CF93B7
:100EA000DF933C01EB010E948402F3012785308926
:100EB000621B730B6A307105B0F3F894E881F98115
:100EC0007BB170616BB16F7E6BB9CA848F812C2D41
:100ED000281B822F2F83BF844A805B801D850C8551
:100EE000DE841F5F0F5FD3949E813885A984EB84D5
:100EF0004181D20120E0C32F522F322F318144276C
:100F000088943111380F08F43FEF8195889410FDD3
:100F1000430F4795889411FD430F4795889412FD20
:100F2000430F4795889413FD430F4795889414FD0C
:100F3000430F4795889415FD430F4795889416FDF8
:100F4000430F4795889417FD430F47958894232FA7
:100F50001111242F8C0D422F002C7BB900C047FFAC
:100F60006BB930812227889400C000C0002C6BB977
:100F70003111390F00C0002C7BB900C046FF6BB99E
:100F800008F43FEF9195889400C000C0002C6BB925
:100F900000FD230F00C0002C7BB900C045FF6BB9DA
:100FA0002795889401FD230F00C000C0002C6BB969
:100FB0002795889400C0002C7BB900C044FF6BB912
:100FC00002FD230F2795889400C000C0002C6BB948
:100FD00003FD230F00C0002C7BB900C043FF6BB999
:100FE0002795889404FD230F00C000C0002C6BB926
:100FF0002795889400C0002C7BB900C042FF6BB9D4
:1010000005FD230F2795889400C000C0002C6BB904
:1010100006FD230F00C0002C7BB900C041FF6BB957
:101020002795889407FD230F00C000C0002C6BB9E2
:101030002795889400C0002C7BB900C040FF6BB995
:10104000432F0111422F9A0D00C000C0002C6BB934
:1010500000C000C0002C7BB900C047FF6BB93281D3
:101060002227889400C000C0002C6BB931113C0FBE
:1010700000C0002C7BB900C046FF6BB908F43FEFFD
:10108000EB0DF11D00C000C0002C6BB9D0FC230F8C
:1010900000C0002C7BB900C045FF6BB92795889430
:1010A000D1FC230F00C000C0002C6BB92795889499
:1010B00000C0002C7BB900C044FF6BB9D2FC230FE9
:1010C0002795889400C000C0002C6BB9D3FC230F77
:1010D00000C0002C7BB900C043FF6BB927958894F2
:1010E000D4FC230F00C000C0002C6BB92795889456
:1010F00000C0002C7BB900C042FF6BB9D5FC230FA8
:101100002795889400C000C0002C6BB9D6FC230F33
:1011100000C0002C7BB900C041FF6BB927958894B3
:10112000D7FC230F00C000C0002C6BB92795889412
:1011300000C0002C7BB900C040FF6BB9432FD11019
:10114000422FC19500C000C0002C6BB9CE0D00C06D
:1011500000C07BB900C047FF6BB93181222788945A
:1011600000C000C0002C6BB93111380F00C0002C3A
:101170007BB900C046FF6BB908F43FEF81958894B6
:1011800000C000C0002C6BB910FD230F00C0002C64
:101190007BB900C045FF6BB92795889411FD230FDB
:1011A00000C000C0002C6BB92795889400C0002CAB
:1011B0007BB900C044FF6BB912FD230F27958894BB
:1011C00000C000C0002C6BB913FD230F00C0002C21
:1011D0007BB900C043FF6BB92795889414FD230F9A
:1011E00000C000C0002C6BB92795889400C0002C6B
:1011F0007BB900C042FF6BB915FD230F279588947A
:1012000000C000C0002C6BB916FD230F00C0002CDD
:101210007BB900C041FF6BB92795889417FD230F58
:1012200000C000C0002C6BB92795889400C0002C2A
:101230007BB900C040FF6BB9432F1111422F8C0DB9
:1012400000C000C0002C6BB9119709F086CE20EECB
:1012500031E0D2010E94CF36DC01CB01F4E0B6953B
:10126000A79597958795FA95D1F730E020E0B901D9
:10127000EAE94E9E040C611D5E9E600D711D1124F5
:10128000650D711D860F971FA11DB11D893E43E09D
:101290009407A105B10508F434C0885E9340A10904
:1012A000B10942E0B695A795979587954A95D1F7EC
:1012B00047E0849F080E211D949F200D311D1124AD
:1012C000290F311D60911E0270E0860F971F820F5B
:1012D000931F4091DF025091E0026091E102709112
:1012E000E202292F3327420F531F611D711D4093C6
:1012F000DF025093E0026093E1027093E202809378
:101300001E0278940E948402F301708B6787DF913C
:10131000CF911F910F91EF90DF90CF90BF90AF9042
:101320008F907F906F905F904F900895549A08959A
:10133000EF92FF920F931F93CF93DF93CDB7DEB75A
:1013400062970FB6F894DEBF0FBECDBF7C01DC0103
:101350001C968C917A8369835C834B835E834D8377
:101360000D871E872F87813001F5CE0101960E94DF
:10137000060783E0888B1A8A198AD701ED91FC91C0
:101380000484F585E02DBE016F5F7F4FC70109958D
:1013900062960FB6F894DEBF0FBECDBFDF91CF913E
:1013A0001F910F91FF90EF9008951C861B861A865F
:1013B000198618861F82DDCFEF92FF920F931F933D
:1013C000CF93DF93CDB7DEB762970FB6F894DEBF49
:1013D0000FBECDBF7C01DC011C968C917A836983A2
:1013E0005C834B835E834D830D871E872F878130FF
:1013F000F9F4CE0101960E940607188A1A8A198A02
:10140000D701ED91FC910484F585E02DBE016F5F5D
:101410007F4FC701099562960FB6F894DEBF0FBEE5
:10142000CDBFDF91CF911F910F91FF90EF90089565
:101430001C861B861A86198618861F82DECF0F939C
:101440001F93CF930E94DB0200911A0210911B029E
:1014500020911C0230911D02601B710B820B930BBB
:10146000653F714081059105B8F0C0911902CF5FC9
:10147000C09319020E94DB0260931A0270931B0250
:1014800080931C0290931D02C53010F01092190237
:10149000809119028093AA02CF911F910F91089514
:1014A0008F929F92AF92BF92CF92DF92EF92FF9274
:1014B000A895C12CD12C76014C01B12CA12CC814BB
:1014C000D904EA04FB0460F461E070E080E090E09D
:1014D0000E94A9028FEFC81AD80AE80AF80AEFCFCB
:1014E000FF90EF90DF90CF90BF90AF909F908F9044
:1014F00008951F93CF93DF93182FEB018D7F8130D9
:10150000D1F46231710510F0C1E1D0E0209711F4FF
:10151000C1E0D0E08AE090E00E9411028AE0282F2A
:101520002C9FC0012D9F900D11240E948D0084EFEF
:1015300091E00E94500A12501230D8F4CC30D105FC
:1015400010F0CBE0D0E08BE090E00E941102C330BD
:10155000D10510F4C3E0D0E08AE0282F2C9FC00111
:101560002D9F900D11240E948D0084EF91E00E9428
:10157000500AE09134058E2F90E0FC01EE0FFF1F22
:10158000E80FF91FE15FFA4F80818F7B8083DF9145
:10159000CF911F910895CF93DF93EC018AE090E003
:1015A0000E941102CE010E948D0082EC91E00E9407
:1015B000500AE09134058E2F90E0FC01EE0FFF1FE2
:1015C000E80FF91FE15FFA4F80818F7B8083DF9105
:1015D000CF91089590E080E008954F925F926F92CE
:1015E0007F928F929F92AF92BF92CF92DF92EF92B3
:1015F000FF920F931F93CF93DF9300D01F92CDB72D
:10160000DEB76A0119821A821B828823C9F18B0115
:10161000E1E0F0E0482E512C712C612CD8012D9185
:101620008D01222349F17F01B1E0EB1AF108D601C7
:10163000AE0DBF1D8C908820F9F030E050E040E006
:101640002F5F3F4F4F4F5F4FC301B2010E9485365E
:101650009B01AC01912CB12CA12CC501B4016F5F91
:101660007F4F8F4F9F4F0E948536A1E0B0E0AC0FB7
:10167000BD1FAE0DBF1D8C933196E430F10571F6A0
:1016800069817A818B810F900F900F90DF91CF91BC
:101690001F910F91FF90EF90DF90CF90BF90AF9090
:1016A0009F908F907F906F905F904F900895CF9212
:1016B000DF92EF92FF920F931F93CF93DF93F82E59
:1016C0008091120490911304A0911404B091150418
:1016D000892B8A2B8B2BD9F00E94840200915C030A
:1016E00010915D0320915E0330915F03601B710BCD
:1016F000820B930B00911204109113042091140497
:10170000309115046017710782079307C8F20E9491
:10171000840260935C0370935D0380935E039093F7
:101720005F03E0911A04F0911B04309759F0409147
:1017300016045091170460911804709119048F2DAC
:101740000995F82EC0915A03D0915B03209721F19F
:10175000EC8480911004909111048436910508F472
:101760001C86E881F981C280D380AE01475F5F4F5C
:10177000BE016A5F7F4F8F2D0E94ED0A8B01282FDB
:101780004D855E856A817B81CE01F6010995EC86E7
:101790000C80DD81C02DDACF8091600390916103D0
:1017A0009C012F5F3F4F3093610320936003499763
:1017B00054F0DF91CF911F910F91FF90EF90DF9048
:1017C000CF900C94E702DF91CF911F910F91FF9082
:1017D000EF90DF90CF900895409307035093080354
:1017E0006093090380910F040E94570B90E080E002
:1017F0000C94500AAF92BF92CF92DF92EF92FF9279
:101800000F931F93CF93DF936C01F62E80911204F8
:1018100090911304A0911404B0911504892B8A2B84
:101820008B2BD9F00E94840200915C0310915D0320
:1018300020915E0330915F03601B710B820B930B51
:101840000091120410911304209114043091150496
:101850006017710782079307C8F20E9484026093A1
:101860005C0370935D0380935E0390935F03E0914C
:101870001A04F0911B04309759F0409116045091CE
:10188000170460911804709119048F2D0995F82E92
:10189000C0915A03D0915B03209719F1EC84809199
:1018A0001004909111048436910508F41C86E88197
:1018B000F981A080B180AE01475F5F4FBE016A5FD2
:1018C0007F4F8F2D0E94ED0A4D855E858B01282F5D
:1018D000B601CE01F5010995EC860C80DD81C02DA5
:1018E000DBCF80916003909161039C012F5F3F4F9C
:1018F0003093610320936003499764F0DF91CF91A7
:101900001F910F91FF90EF90DF90CF90BF90AF901D
:101910000C94E702DF91CF911F910F91FF90EF9010
:10192000DF90CF90BF90AF9008950F931F93CF9308
:10193000DF9300D01F92CDB7DEB719821A821B82C7
:1019400060E0CE0101960E94FA0B00915A031091BB
:101950005B030115110591F0F801828193810097D5
:1019600049F025853685B901660F771F620F731F11
:101970000E940901F80104811581EBCF0F900F90AF
:101980000F90DF91CF911F910F910895FC018585F4
:10199000968508950F931F93CF93DF9300D01F92E6
:1019A000CDB7DEB7AB0119821A821B82DC01ED9143
:1019B000FC910190F081E02D00E010E020E0BE01FC
:1019C0006F5F7F4F09950F900F900F90DF91CF9130
:1019D0001F910F9108954F925F926F927F928F9215
:1019E0009F92AF92BF92DF92EF92FF920F931F935D
:1019F000CF93DF938C01EB0188818B32D1F18D3253
:101A0000C9F52196EE24E394888190ED980F9A30E1
:101A100010F08E3289F560E070E0CB01FE0121917B
:101A2000A0ED8A2E820E39E0381508F440C06A39DC
:101A300029E97207820729E1920708F04DC0AAE060
:101A4000B0E09B01AC010E94F034912CB12CA12C90
:101A500024013501409450946094709446165706C2
:101A600068067906C8F1680D791D8A1D9B1DEF0176
:101A7000D5CF2196E12CC8CFF801108211821282B5
:101A8000138214821582168217821086C801DF9194
:101A9000CF911F910F91FF90EF90DF90BF90AF908B
:101AA0009F908F907F906F905F904F90089521113D
:101AB00013C0F80160837183828393830E94B233E1
:101AC000F801648375838683978387E0E11001C002
:101AD00086E0F8018087DACFF12CEAE08E2E912C97
:101AE000A12CB12C61157105F0E88F07910540F02C
:101AF000A50194010E943A35CA01B901F394F2CFCD
:101B0000FE01299130ED320F3A3010F4F394F8CF02
:101B10002E32F1F4EF012196FE012196208150ED45
:101B2000D52ED20E29E02D1598F06C3C3CEC7307B5
:101B30003CE08307910580F7AAE0B0E09B01AC018F
:101B40000E94F0346D0D711D811D911DFA94E4CF3A
:101B500020812F7DD0E0C0E0253409F04FC02181E5
:101B60002D32A9F53296BB24B394DF01D0E0C0E05A
:101B70002F2D0F2C000C330B4AE0A42EFD01DD901D
:101B800040ED4D0D4A30A8F5AC9EA001AD9E500D24
:101B90001124CD2DDD0CDD0BE097C40FD51FAE0158
:101BA000420F531F473251054CF3BB20B9F080E080
:101BB00090E0A0E0B0E8E11003C080E090E0DC013C
:101BC000F80184839583A683B78388E083CF2B3283
:101BD00019F03196B12CC9CF3296FCCF80E090E05D
:101BE000A0E8BFEFE110ECCF80E090E0A0E8BFE715
:101BF000E7CFBB2019F0D195C195D10920812111E2
:101C00003BCFCF0DD11DF7FCDA950E94B2331C16E5
:101C10001D06E4F4F12CC0FF0CC024E0F29EF0019C
:101C20001124EB5BFE4F20813181428153810E9460
:101C30001334D595C795F394209769F7E110905820
:101C4000F8016483758386839783BFCFD195C1954F
:101C5000D109F12C209791F3C0FF0CC024E0F29E33
:101C6000F0011124E35DFE4F2081318142815381D7
:101C70000E941334D595C795F394ECCF80339CF034
:101C80008A3324F08F3524F08B3724F481E00895D3
:101C900081344CF08B35D4F393ED980F81E0923082
:101CA000B0F380E008958B32B9F7F0CFFC01828564
:101CB000811114C0A281B381848195812FEF3FEF00
:101CC000A817B90730F4CD010196938382832C9134
:101CD00030E037FD20E0218781E08287818508950B
:101CE0001F93CF93DF93EC01CE010E94560E8B30F1
:101CF0003CF489305CF48823E9F090E080E01CC07B
:101D0000803221F08F3221F08D30B9F71A86ECCF76
:101D10001A86CE010E94560E8A3229F08F32D1F0F7
:101D200082E090E009C01A8610E0CE010E94560EB3
:101D3000811106C081E090E0DF91CF911F9108955D
:101D40008F3211F41111E2CF11E08A3209F010E064
:101D50001A86EBCF1A86CE010E94560E882351F3C5
:101D60008A30C1F7C1CFCF92DF92EF92FF92CF932B
:101D7000DF93CDB7DEB729970FB6F894DEBF0FBE5D
:101D8000CDBF009749F0FC0184818F77873040F404
:101D9000853068F48330E0F460E070E0CB010BC084
:101DA0008830D1F7C080D180E280F38020C060818C
:101DB00071818281938129960FB6F894DEBF0FBEA0
:101DC000CDBFDF91CF91FF90EF90DF90CF9008953E
:101DD00060817181CE0101960E94EB0C898586306D
:101DE000F1F08830C9F6CD80DE80EF80F88420E005
:101DF00030E0A901C701B6010E94803687FDCCCF33
:101E000020E030E040E85FE4C701B6010E94AD3356
:101E1000181614F2C701B6010E945136CCCF698161
:101E20007A818B819C81C7CFCF92DF92EF92FF9214
:101E3000CF93DF93CDB7DEB729970FB6F894DEBF07
:101E40000FBECDBF009749F0FC0184818F778730AA
:101E500030F4853058F4833000F580E011C08830CC
:101E6000E1F7C080D180E280F38026C0808191813B
:101E7000A281B3818F3F9105A105B10509F068F7F3
:101E800029960FB6F894DEBF0FBECDBFDF91CF917C
:101E9000FF90EF90DF90CF90089560817181CE0127
:101EA00001960E94EB0C8985863001F18830A9F6F5
:101EB000CD80DE80EF80F88420E030E0A901C7010A
:101EC000B6010E94803687FDC8CF20E030E04FE7A2
:101ED00053E4C701B6010E94AD3318160CF4BDCF10
:101EE000C701B6010E945136862FCACF89819A81D7
:101EF000AB81BC81BFCF8EE00E9472022091710540
:101F00003091720528173907C0F48FE00E947202E1
:101F100020917105309172052817390770F480E11E
:101F20000E947202209171053091720528173907BD
:101F300020F41092600580E0089581E080936005B0
:101F40000895FC0180819181892B21F460E070E08B
:101F5000CB0108956FEA7FE090E080E00895089556
:101F6000FC0184819581009799F02281338146811B
:101F700057812417350718F0158214820895A90196
:101F80004F5F5F4F53834283820F931FFC01608337
:101F90000895DF92EF92FF920F931F93CF93DF93F9
:101FA000CDB7DEB728970FB6F894DEBF0FBECDBF12
:101FB0008C017B01DC011696ED91FC91228133812D
:101FC0008481958193838283FA83E9831C821B82B7
:101FD0003E832D83821B930B98878F83C8010E94B9
:101FE000560ED82EF8011286C8010E94560ED8014E
:101FF0001A961C92D816A9F1811110C081E090E0C8
:1020000028960FB6F894DEBF0FBECDBFDF91CF91FB
:102010001F910F91FF90EF90DF9008958C35D9F4C8
:10202000C8010E94560E882349F3853719F484E0CD
:1020300090E0E6CFE7EAF1E09081992351F089132F
:1020400006C08181811105C082E090E0D9CF32962F
:10205000F3CFF8011286682FCE0101960E94B00FCF
:10206000C3CF60E0CE0101960E94B00F8D819E81AA
:10207000892B79F0E981FA818B819C812F813885C8
:10208000AC01421B530B82819381840F951F938374
:1020900082838D819E81D7018D939C93892B19F426
:1020A00083E090E0ADCF90E080E0AACFCF93DF93C4
:1020B000DC01EB01EC81FD818A819B810896E817A8
:1020C000F90730F4F0E0E0E0CF01DF91CF9108951F
:1020D0003897FD83EC833097A9F31296CD91DC916C
:1020E0001397209791F0CF018C1B9D0B23E09595C2
:1020F00087952A95E1F78D831396FC93EE931297BB
:102100001582148217821682DFCF1196FC93EE930C
:10211000F3CF8F929F92AF92BF92CF92DF92EF92C6
:10212000FF920F931F93CF93DF93CDB7DEB7CD54BC
:10213000D1090FB6F894DEBF0FBECDBF8C016B0185
:102140000E94700E2E969FAF8EAF2E97CE01845BAD
:102150009F4F0E94A10F672B09F08BC280FD89C29F
:10216000C8010E94560E873209F4EDC11CF5823277
:1021700009F4E9C1C8010E94560EF82EAE014F5F66
:102180005F4F4A01E12C5A018F2D0E943E0E882399
:1021900009F4F6C15FE3E51609F4F2C1D8011A9615
:1021A0001C92E394F401F1924F01C8010E94560E73
:1021B000F82EEACF8B3509F468C08B37D9F6D601F3
:1021C00014968C9114978078806214968C9314974F
:1021D00011961C921E9213961C921E921297F80151
:1021E0008085882309F4ACC1C8010E94560E8B3744
:1021F00009F065C0D8011A961C92C8010E94700EA1
:102200002C969FAF8EAF2C97CE01865B9F4F0E947E
:10221000A10F672B09F017C180FD15C1C8010E94ED
:10222000560E8D3709F464C0D8016D917C91C601BA
:102230000E9456105C01892B09F47EC1C8010E94DE
:10224000560E873209F496C0823209F493C0D80141
:102250001696ED91FC91228133818481958193833F
:102260008283FA83E9831C821B823E832D83821B37
:10227000930B98878F83C8010E94560EF82E811108
:10228000FDC0EE24E394F12C7CC0D60114968C9111
:1022900014978078806414968C93149711961C92EE
:1022A0001E9213961C921E921297F8018085882325
:1022B00009F446C1C8010E94560E8B3519F082E020
:1022C000E82E3CC1D8011A961C92C8010E94700EDB
:1022D0009A838983CE0101960E94A10F672B09F092
:1022E00046C080FD44C0C8010E94560E8D3591F451
:1022F000F8011286E12C22C180FD39C0C8010E947C
:10230000560E8D35A9F3C8010E94560E8C32B9F6CF
:10231000F8011286D8016D917C91C6010E94561079
:10232000BC01892B09F408C1F80190859150908770
:10233000C8010E9489109A838983D80118968C91CC
:1023400018978F5F18968C93CE0101960E94A10F6B
:10235000672B69F480FD0BC0C8010E94700E9A8340
:102360008983CE0101960E94A10F672B29F2E98093
:10237000FA806FC0BE016F5B7F4FC8010E94C90F1A
:102380007C012B96EFAE2B972C96FFAE2C97CE01AF
:10239000865B9F4F0E94A10F672B09F05AC080FDFA
:1023A00058C023962EAD3FAD2397D50114968C913E
:1023B0001497806814968C93149717963C932E93D9
:1023C0001697C8010E94700E2C969FAF8EAF2C9767
:1023D000CE01865B9F4F0E94A10F672BA1F580FD68
:1023E00032C0C8010E94560E8A3309F068CFF80146
:1023F0001286808581508087B501C8010E948910AE
:102400002C969FAF8EAF2C97D80118968C91189769
:102410008F5F18968C93CE01865B9F4F0E94A10F11
:10242000672B89F480FD0FC0C8010E94700E2C96A6
:102430009FAF8EAF2C97CE01865B9F4F0E94A10F5E
:10244000672B09F456C02B96EFAC2B972C96FFAC5C
:102450002C97C701C35BDF4F0FB6F894DEBF0FBEEA
:10246000CDBFDF91CF911F910F91FF90EF90DF9043
:10247000CF90BF90AF909F908F9008950E943E0E96
:1024800042E0E42E882309F4FECEF80112866F2D77
:10249000CE0101960E94B00FC8010E94560EF82E80
:1024A0000E943E0E8111F1CF60E0CE0101960E94A4
:1024B000B00F8D819E81892B79F0E981FA818B8122
:1024C0009C812F813885AC01421B530B8281938103
:1024D000840F951F938382838D819E8123969FAF66
:1024E0008EAF2397E12C892B09F0CDCE33E0E32E7C
:1024F000CACE80FDA8CFC8010E94560E8D3709F4C0
:10250000F7CEC8010E94560E8C3209F0D8CED80101
:102510001A961C92C8010E94700E2C969FAF8EAF27
:102520002C97CE01865B9F4F0E94A10F672B09F06D
:102530008ACF80FF79CE87CF23E0E22EF12C89CF9E
:1025400095E0E92EFBCFBE016F5B7F4FC8010E9473
:10255000C90F9A838983CE0101960E94A10F672B30
:1025600009F005CF80FD03CF23962EAD3FAD239715
:10257000F601848180788460848331832083BACE9D
:10258000F501EE0DF11D108289818437B9F4D60171
:1025900014968C9114978078856014968C9381E0C2
:1025A00090E0A0E0B0E0F60180839183A283B38342
:1025B000F12CF4E0EF121CC080E01AC0863689F4DA
:1025C000D60114968C9114978078856014968C931C
:1025D000F601108211821282138281E0F12CF5E063
:1025E000E9CF8E3639F481E0F12C44E0E41621F392
:1025F000E82E2FCFB501CE018F5B9F4F0E94EB0CD1
:1026000025964CAD5DAD6EAD7FAD25972A968FAD0D
:102610002A97873061F08830C1F0863009F04FCEBC
:10262000D60114968C9114978078866006C0D601E6
:1026300014968C9114978078876014968C93F60189
:10264000408351836283738355CE29964CAD5DAD33
:102650006EAD7FAD2997D60114968C911497807832
:10266000886014968C93F601408351836283738350
:1026700041CE2D968FAD2D972E969FAD2E97EACEFB
:10268000FF920F931F93CF93DF93D82F062FF42E33
:10269000C22F61E083E00E943E0110E061E0D13092
:1026A00009F060E087E00E943E01B80185E00E94E9
:1026B0001502D0E081E061E0F81260E088E00E945D
:1026C0003E01BE0186E0DF91CF911F910F91FF90F7
:1026D0000C9415022F923F924F925F926F927F92CD
:1026E0008F929F92AF92BF92CF92DF92EF92FF9222
:1026F0000F931F93CF93DF93CDB7DEB72B970FB612
:10270000F894DEBF0FBECDBFE82ED62EF42E3D834B
:102710002C8318010E94DB024B015C012E2D220F3D
:102720002B830FEF0F0DC12C1B8611E04F2D50E0B6
:102730005A834983C101B0E0A0E08E839F83A887BC
:10274000B98710933603E092580310923703109222
:1027500059036D2D83E094E00E94B50681E00E944C
:102760006E051093360310923703109259030E949E
:1027700084022B013C0180913003811169C091E0FA
:10278000900F9A871093300310932F03AFEFA0930D
:102790002E0310922D0300932C0310930B038091B2
:1027A0000B03BB818B2B80930B0380910A03813039
:1027B00009F091C010920A030E9484022B013C018F
:1027C00080910B038093BB0080913203909133037F
:1027D000A0913403B0913503892B8A2B8B2BA1F068
:1027E0000E948402209132033091330340913403DC
:1027F000509135036419750986099709261737071B
:102800004807590708F445C08091BC0083FDD8CF24
:1028100025EC2093BC000E9484022B013C01809196
:102820003003813009F45BC080912D034A85841701
:1028300018F450912D035A87ECE0F3E0A1E2B2E0E6
:1028400080E09A85891751F191919D938F5FF9CF1F
:102850008091320390913303A0913403B0913503FA
:10286000892B8A2B8B2B09F486CF0E94840220911E
:10287000320330913303409134035091350364198E
:10288000750986099709261737074807590708F079
:1028900072CF809131030E944D051A8610928A02F0
:1028A000AA85A093890280918A02BA85B81709F493
:1028B00048C021143104A9F583E094E00E946E061B
:1028C000EC81FD812B85E20FF11D27FDFA958083B8
:1028D0002F5F2B87E8CF35EE3093BC009CCF8091E3
:1028E000320390913303A0913403B0913503892BC7
:1028F0008A2B8B2B09F493CF0E9484022091320300
:1029000030913303409134035091350364197509B4
:1029100086099709261737074807590708F07FCF18
:10292000B8CF0E94DB02681979098A099B092E81B8
:102930003F8148855985621773078407950708F416
:10294000BBCF8F2D8C0D0F19CC24C3948F1508F499
:10295000F8CE21143104D9F00E94DB02AB01BC0196
:10296000481959096A097B09C101B0E0A0E048177C
:1029700059076A077B0758F03B85832F330F990B64
:1029800049815A818417950714F45FEF5B878B8523
:102990002B960FB6F894DEBF0FBECDBFDF91CF915F
:1029A0001F910F91FF90EF90DF90CF90BF90AF906D
:1029B0009F908F907F906F905F904F903F902F905F
:1029C00008950F931F93CF93DF93C2E3D4E008EEF3
:1029D00013E023E334E042E067E488810E946A1355
:1029E00089819A81982789279827DF91CF911F9114
:1029F0000F910895CF93DF93C5E6D0E02197F9F0CA
:102A00000E94E1149093380580933705092E000C3D
:102A1000AA0BBB0B4091490550914A0560914B05AB
:102A200070914C05840F951FA61FB71F8093490511
:102A300090934A05A0934B05B0934C05DFCF60916E
:102A4000490570914A0580914B0590914C0524E60B
:102A500030E040E050E00E94D134209349053093AB
:102A60004A0540934B0550934C0580E0DF91CF9190
:102A700008952F923F924F925F926F927F928F9222
:102A80009F92AF92BF92CF92DF92EF92FF920F93FD
:102A90001F93CF93DF9300D000D000D01F92CDB70B
:102AA000DEB71C01162F4D832F83B0900001B616A0
:102AB00009F490C020E041E060E081E00E94401312
:102AC0000E94DB026B017C0180913D0590913E05E7
:102AD000A0913F05B0914005A7019601281B390B35
:102AE0004A0B5B0BCA01B9010E94B23320E030E00F
:102AF0004AE754E40E94D83560934105709342053B
:102B00008093430590934405C0923D05D0923E05C5
:102B1000E0923F05F09240050E94E1149093380541
:102B200080933705092E000CAA0BBB0B4091490579
:102B300050914A0560914B0570914C056A017B01EB
:102B4000C81AD90AEA0AFB0AC701B6010E94B433BF
:102B500020E030E043E053E40E94D8352091410565
:102B60003091420540914305509144050E94133431
:102B70006B017C019F772DEC3CEC4CE45DE30E9403
:102B8000AD3387FDB2C02091450530914605409197
:102B9000470550914805C701B6010E946C35609306
:102BA00045057093460580934705909348056093CB
:102BB00010027093110280931202909313020E94EC
:102BC000DB026093140270931502809316029093B7
:102BD000170214C00E94DB02C0901402D0901502AC
:102BE000E0901602F09017026C197D098E099F097A
:102BF0006B3071058105910508F05CCFC090100223
:102C0000D0901102E0901202F0901302B11204C0B1
:102C10008091600581110AC010930001C0920C02DE
:102C2000D0920D02E0920E02F0920F0220910C025F
:102C300030910D0240910E0250910F0229833A8388
:102C40004B835C833F81632F70E090E080E00E94C3
:102C5000B4332B013C014D81642F70E090E080E0A3
:102C60000E94B4334B015C0129813A814B815C8124
:102C7000C701B6010E946B35A30192010E94133473
:102C8000A50194010E946C350E944A3610E0061797
:102C900017077CF17E836D836A30710524F4AAE006
:102CA000B0E0BE83AD83A701960169817A818B81F3
:102CB0009C810E946B35A30192010E941334A501EF
:102CC00094010E946C350E944A360617170734F0AB
:102CD0008B016A30710514F40AE010E0232861F0DA
:102CE0002D8140E0602F80E00BC0C12CD12C7601FB
:102CF0004ACF1E830D83D7CF202F41E06D8181E025
:102D000027960FB6F894DEBF0FBECDBFDF91CF91EF
:102D10001F910F91FF90EF90DF90CF90BF90AF90F9
:102D20009F908F907F906F905F904F903F902F90EB
:102D30000C944013BF92CF92DF92EF92FF920F93C9
:102D40001F93CF93DF9300D0CDB7DEB7F82EE62EDA
:102D5000C42EB22ED02E08EE13E09E012E5F3F4F00
:102D600041E00E946A13882399F18C2D8B19990BED
:102D7000AC014F5F5F4F81E090E002C0880F991F68
:102D8000BA94E2F70197042E01C0880F0A94EAF77B
:102D90000D2D01C0000F4A95EAF7982F90952A81D2
:102DA00092238023892B8A838983AE014F5F5F4FF3
:102DB0006E2D8F2D0E94E4060F900F90DF91CF9122
:102DC0001F910F91FF90EF90DF90CF90BF900895EB
:102DD00080E0F2CFCF93DF9300D01F92CDB7DEB764
:102DE000833021F08430C9F0811111C090E0A0E05F
:102DF000942BA62BA9839A832B8360910F04CE0179
:102E000001960E94FA0B80910F040E94570B0F90BD
:102E10000F900F90DF91CF91089590E0A0E0942B58
:102E2000A62BA09307039093080320930903EBCFED
:102E3000FC0101900020E9F73197AF01481B590BC5
:102E4000BC0186E693E00C94F2030F931F93CF939B
:102E5000DF93EC0160E08DE00E943E0183E090E0B2
:102E60000197F1F761E08DE00E943E0183E290E07E
:102E70000197F1F760E08DE00E943E01EAEBF0E09F
:102E80006491E6EAF0E0E491F0E0EE0FFF1FE05716
:102E9000FF4F8591949100E412E42FE030E0462F3B
:102EA0000E946922611571058105910529F06F5F06
:102EB0007F4F8F4F9F4F9F70CB016AE370E00E945E
:102EC000A1366739710548F086E990E099838883D7
:102ED000DF91CF911F910F91089579836883F8CF87
:102EE0000E94EE380F931F93CF93DF93EC018881FC
:102EF0009981009759F02A813B812617370730F0D6
:102F000081E0DF91CF911F910F9108958B016F5F49
:102F10007F4F0E943138009759F0998388831B8333
:102F20000A832C813D81232B59F7FC011082E8CFC5
:102F300080E0E7CFEF92FF920F931F93CF93DF9341
:102F40006115710541F480E0DF91CF911F910F91E0
:102F5000FF90EF90089541155105B1F07B01EC0110
:102F60000C811D81040F151FB8010E947217882360
:102F700051F3288139818C819D81B701820F931F84
:102F80000E9405391D830C8381E0DECFCF93DF9350
:102F9000EC0188819981009711F00E94A83719826D
:102FA00018821D821C821B821A82DF91CF910895A4
:102FB000CF93DF93EC0140916A0550916B056091CE
:102FC0006605709167050E949A17811103C0CE01B2
:102FD0000E94C617CE01DF91CF9108950F931F93E2
:102FE000CF93DF9300D0CDB7DEB78C0169831A820F
:102FF00041E050E0BE016F5F7F4F0E949A17811140
:1030000003C0C8010E94C617C8010F900F90DF913E
:10301000CF911F910F910895CF93DF93EC01FB01A6
:1030200001900020E9F73197AF01461B570B0E9432
:103030009A17811103C0CE010E94C617CE01DF91FD
:10304000CF910895EF92FF920F931F93CF93DF9349
:10305000EC017B018A01BA010E94721781110BC039
:10306000CE010E94C617CE01DF91CF911F910F9123
:10307000FF90EF9008951D830C83B701888199819B
:103080000E940539F0CFFB0101900020E9F731974C
:10309000AF01461B570B0C942218CF93DF9300D03F
:1030A000CDB7DEB7FC011182108213821282158225
:1030B00014822BE729831A82BE016F5F7F4F0E9423
:1030C00043180F900F90DF91CF910895FC018081FC
:1030D0009181009711F00C94A837089583EF92E046
:1030E0000C946618EF92FF920F931F93CF93DF9388
:1030F000CDB7DEB7C054D1090FB6F894DEBF0FBE0E
:10310000CDBF7C01162F1F86188A198A1A8A1B8A3E
:1031100081E08C8B80E090E0A0EEB0E48D8B9E8B04
:10312000AF8BB88F04E1098F1B8E1A8E1D8E1C8EFB
:103130001F8E1E8E50E040E061EB71E0CE014A969A
:103140000E9422188AEF88A38AA382E593E09CA3B9
:103150008BA386EB93E09EA38DA321960FAF2197BF
:103160004091E9025091EA02CA0102970FEF2AE06A
:103170008A30910540F4FC01ED5DFE4F2081875EB1
:103180009E4FFC010081F9E0EF16F10408F074C0D5
:10319000F701E353F74E0C94C936D618E7180B190C
:1031A000131919191F1925192D19351941305105F0
:1031B00019F4212F41E034C0412F6091180290E0B2
:1031C00080E00E94391581E08093180209C04130E7
:1031D0005105C1F4212F40E0612F80E00E9440138F
:1031E000CE014A960E946618C05CDF4F0FB6F89475
:1031F000DEBF0FBECDBFDF91CF911F910F91FF902A
:10320000EF900895412F6091180281E090E00E94B4
:10321000391582E0D9CF83E080931802212F40E056
:10322000612F81E0DBCF84E080931802212F41E001
:10323000D3CF85E080931802212F2695BBCF86E05F
:1032400080931802212F2695C6CF87E0809318021D
:10325000612F6695212F41E0E4CF88E0809318022A
:10326000612F6695212F40E0B8CF89E08093180246
:1032700020E041E060E0D5CF8AE0A6CF823069F05F
:1032800018F4813031F00895833051F0843059F0D2
:10329000089582E090E00C94721883E090E0FBCFF8
:1032A00090E080E0F8CF81E090E0F5CF85ED80936D
:1032B000BC008091320390913303A0913403B0910C
:1032C00035030796A11DB11D23E0B695A7959795E7
:1032D00087952A95D1F72091BC0024FD03C0109258
:1032E00030030895409132035091330360913403C9
:1032F00070913503452B462B472B69F30097A105A9
:10330000B10541F025E32A95F1F700000197A109E5
:10331000B109E1CF809131030C944D050F931F93B8
:10332000CF93DF93FC01248125FF1FC08B01C08157
:10333000D1812097D1F06E817F8160177107E1F014
:103340000115110541F06115710529F0C8010E94B0
:10335000FC38882389F08D81882339F0F8E08F02CA
:10336000C0011124C80FD91FE4CF80E090E0DF91A5
:10337000CF911F910F910895CE01F9CFCF92DF9297
:10338000EF92FF920F931F93CF93DF93EC01CA014B
:1033900008960E948E198C01009709F463C0FC0105
:1033A00084818F77873009F447C0883091F0863068
:1033B00009F058C0208131812C173D070CF44FC013
:1033C00091E080E0C217D3070CF090E0292F382F4E
:1033D00026C0BE01DD0F880B990B0E94B4339B0100
:1033E000AC01F80160817181828193810E946B350B
:1033F0006B017C0120E030E0A9010E94AD3387FD24
:103400002EC0D1E0C0E020E030E0A901C701B60144
:103410000E94803618160CF0D0E02D2F3C2F81E052
:10342000232B09F080E0DF91CF911F910F91FF9046
:10343000EF90DF90CF90089560817181C60FD71F04
:103440002FEF3FEFD7FD07C091E080E0CD2B09F4CF
:1034500090E0292F382F319521953109E0CF2FEFBA
:103460003FEFDDCF21E030E0DACF8F929F92AF9235
:10347000BF92CF92DF92EF92FF920F931F93CF9361
:10348000DF93CDB7DEB7C85ED1090FB6F894DEBFC3
:103490000FBECDBFCE010E969A8389839C838B830A
:1034A0008E010A521F4F1E830D8318870F838D854F
:1034B00080788D872091F7023091F8028091F30295
:1034C0009091F402009711F481EB91E0AE014F5F0F
:1034D0005F4F6A01F8015183408393838283820F97
:1034E000931F95838483578346838AE0808712865F
:1034F000BE01675F7F4FC8010E948910CF51DF4F27
:1035000099838883C15ED040CE018F519F4F0E9426
:10351000A10F672BB1F480FD14C0F80181858823C9
:1035200081F08D85982F907661F48F77835082306B
:1035300040F082E090E0CF51DF4F99838883C15EF5
:10354000D040CF51DF4F88819981C15ED040C951B1
:10355000DF4F99838883C75ED04061EB71E083EFD2
:1035600092E00E944318CE0189519F4F0E94A10F03
:10357000672B09F06BC080FD69C0CE0189519F4F58
:103580000E94A10F672B09F04DC07C01F1E0EF22F2
:10359000FF2480FD47C06BEC71E0CE0109960E94CC
:1035A0008E19FC01892B59F094819F77973008F090
:1035B00056C0953008F05DC0933008F077C06DECD0
:1035C00071E0CE0109960E948E19FC01892B09F445
:1035D000A7C094819F779350923008F0A1C060817A
:1035E00071816115710509F49BC086E695E00E9422
:1035F0004318F5E1EF16F10409F432C20CF0BFC034
:1036000044E0E416F10409F498C10CF08EC082E0A5
:10361000E816F10409F441C10CF074C1EA94EF28F2
:1036200009F407C1C851DF4F0FB6F894DEBF0FBED3
:10363000CDBFDF91CF911F910F91FF90EF90DF9061
:10364000CF90BF90AF909F908F90089582EB91E0C4
:103650000E94181788EC91E00E941817E3CF97306A
:10366000A9F0983009F0ABCF80809180A280B38020
:103670003CC080819181A281B381811520E89207AD
:10368000A105B10508F09BCF7C0199CF8081918184
:10369000A281B381813040E89407A105B10508F00B
:1036A0008ECFEE24FF24E81AF90A89CF6081718158
:1036B000C8010E94EB0CF80180819181A281B38145
:1036C0002085273031F0283061F0263009F077CF9F
:1036D000D4CF8130F0E89F07A105B10508F06FCF86
:1036E000E0CF84809580A680B78020E030E040E085
:1036F00057ECC501B4010E94803687FD60CF20E001
:103700003EEF4FEF56E4C501B4010E94AD331816E9
:103710000CF455CFC501B4010E944A367B014FCF4E
:1037200086E695E00E94C61764CF27E0E216F10412
:1037300009F41EC148E0E416F10409F462C155E041
:10374000E516F10409F06ECF8DE090E09093EA0267
:103750008093E9026FEC71E0CE0109960E948E1908
:103760000E94140F8093730562ED71E0CE010996FB
:103770000E948E190E94140F809374057EC085E606
:10378000E816F10409F42CC2ACF4F7E1EF16F104E9
:1037900009F418C20CF4C9C187E090E044E6E416CD
:1037A000F10409F03FCF9093EA028093E90284EF9D
:1037B00091E052CF59E6E516F10409F436C244F51A
:1037C000E6E6EE16F10409F02DCF84E090E0909348
:1037D000EA028093E9026FEC71E0CE0109960E9443
:1037E0008E190E94140F80936D058150893008F066
:1037F000E2C2E82FF0E0E150F44E0C94C936B21E5C
:10380000B71EBE1EC11EC41EC71ECA1ECD1ED01EA0
:10381000FAE6EF16F10409F42DC22EE6E216F104E1
:1038200009F000CF88E090E09093EA028093E902EB
:1038300024C089E090E09093EA028093E9026FEC63
:1038400071E0CE0109960E948E190E94140F809398
:10385000750562ED71E0CE0109960E948E190E94F5
:10386000140F8093770565ED71E0CE0109960E94F3
:103870008E190E94140F80937605C8010E944D187E
:10388000C8010E94D81768ED71E00E940C180E94D0
:103890001F04C8010E946618C5CE8AE090E090938C
:1038A000EA028093E9026FEC71E0CE0109960E9472
:1038B0008E190E94140F80937C0562ED71E0CE0199
:1038C00009960E948E190E94140F80937D056DED5C
:1038D00071E0CE0109960E948E190E94B30E60938A
:1038E0007E0570937F0580938005909381050E94EB
:1038F000DB026093EB027093EC028093ED029093F5
:10390000EE0290CE8BE090E09093EA028093E90281
:103910006FEC71E0CE0109960E948E190E94140F7F
:1039200080937C0562ED71E0CE0109960E948E19AC
:103930000E94140F80937D05A0CF8CE090E09093BF
:10394000EA028093E9026FEC71E0CE0109960E94D1
:103950008E190E94140F8093820562ED71E0CE01F2
:1039600009960E948E190E94140F8093830585CFBB
:103970008EE090E09093EA028093E9026FEC71E0B0
:10398000CE0109960E948E190E94140F809384051F
:1039900062ED71E0CE0109960E948E190E94140F0B
:1039A0008093850565ED71E0CE0109960E948E1920
:1039B0000E94140F809386056FED71E0CE01099689
:1039C0000E948E190E94140F809387056DED71E09F
:1039D000CE0109960E948E190E94B30E609388054D
:1039E0007093890580938A0590938B050E94DB0272
:1039F0006093EF027093F0028093F1029093F202D1
:103A000011CE8FE090E09093EA028093E9026FEC90
:103A100071E0CE0109960E948E190E94140F8093C6
:103A2000840562ED71E0CE0109960E948E190E9414
:103A3000140F8093850565ED71E0CE0109960E9413
:103A40008E190E94140F809386056FED71E0CE01F0
:103A500009960E948E190E94140F809387050DCF3E
:103A60006FEC71E0CE0109960E948E190E94140F2E
:103A7000F82E83E595E00E9425174091650550E0FA
:103A800070E060E08091530590915405B0E0A0E0B3
:103A900021E0481759076A077B070CF420E02093C0
:103AA0005C05E1E0FE120FC0481759076A077B0763
:103AB0000CF48DC0C8010E944D18C8010E94D8178F
:103AC00062EE71E0E2CEF2E0FF12ACCD80915305E0
:103AD000909154059F938F9381EF91E09F938F93E3
:103AE0001F930F930E940C39CE018F519F4F0E945C
:103AF0004D18CE018F519F4F0E94D8176FE50E943D
:103B0000EE17B8010E940C186DE70E94EE170E9494
:103B10001F04CE018F519F4F0E9466180F900F9087
:103B20000F900F900F900F907DCD6FEC71E0CE0154
:103B300009960E948E190E94140F811135C0809140
:103B40005505909156059F938F9381EF91E09F9338
:103B50008F931F930F930E940C39CE018F519F4F6B
:103B60000E944D18CE018F519F4F0E94D8176FE5CC
:103B70000E94EE17B8010E940C186DE70E94EE1724
:103B80000E941F04CE018F519F4F0E9466180F9014
:103B90000F900F900F900F900F9086E090E0909311
:103BA000EA028093E9023ECD813029F480915705E5
:103BB00090915805C8CF823081F780915905909136
:103BC0005A05C1CF80916005882309F473CFC801DD
:103BD0000E944D18C8010E94D81769EE71E055CEB9
:103BE000A6016FEC71E081E090E00E94BE1988238D
:103BF00019F081E090E0D7CDA6016FEC71E082E092
:103C000090E00E94BE19882319F082E090E0CBCDAD
:103C1000A6016FEC71E083E090E00E94BE1988235A
:103C200009F4C5CD83E090E0BECDA6016FEC71E054
:103C300081E090E00E94BE19882321F080918C05DC
:103C40008A3F70F0A6016FEC71E082E090E00E9484
:103C5000BE19811109C080918C0580930F04E2CCBC
:103C60008B5F80938C05F7CF80918C05882399F327
:103C70008550F7CF6FEC71E0CE0109960E948E1946
:103C80000E94140F9FEF980F953008F0CBCC833033
:103C900028F0853090F1853009F45CC02091110145
:103CA00030911201813031F52150310930931201E8
:103CB000209311018091110190911201049734F425
:103CC00083E090E0909312018093110180911101A3
:103CD000909112010B9734F08BE090E090931201D9
:103CE00080931101609111017091120182E00E9494
:103CF000790A5DCD2F5F3F4FD9CF20910F013091D1
:103D00001001833021F52F5F3F4F30931001209336
:103D10000F0180910F0190911001029734F481E01E
:103D200090E09093100180930F0180910F0190918A
:103D30001001419734F081E190E09093100180935D
:103D40000F0160910F017091100181E0D0CF2150DF
:103D50003109DBCF69E070E082E00E94790A69E016
:103D600070E0F3CF1092E8021092E7025BCC81E0A2
:103D700090E09093E8028093E70254CC82E090E0D8
:103D8000F8CF83E090E0F5CF84E090E0F2CF85E0DB
:103D900090E0EFCF86E090E0ECCF87E090E0E9CFD5
:103DA00088E090E09093E8028093E7021092EA02A4
:103DB0001092E90237CC88E090E0DBCF1F920F929F
:103DC0000FB60F9211242F933F938F939F93AF932E
:103DD000BF938091DF029091E002A091E102B09147
:103DE000E2023091DE0223E0230F2D3758F50196D1
:103DF000A11DB11D2093DE028093DF029093E002AB
:103E0000A093E102B093E2028091E3029091E40278
:103E1000A091E502B091E6020196A11DB11D80932B
:103E2000E3029093E402A093E502B093E602BF910F
:103E3000AF919F918F913F912F910F900FBE0F9057
:103E40001F90189526E8230F0296A11DB11DD2CF11
:103E50001F920F920FB60F9211242F933F934F93FF
:103E60005F936F937F938F939F93AF93BF93EF93E2
:103E7000FF93E0910301F09104010995FF91EF9107
:103E8000BF91AF919F918F917F916F915F914F9172
:103E90003F912F910F900FBE0F901F9018951F927A
:103EA0000F920FB60F9211242F933F934F935F936E
:103EB0006F937F938F939F93AF93BF93EF93FF93F2
:103EC000E0910101F09102010995FF91EF91BF91FD
:103ED000AF919F918F917F916F915F914F913F91A2
:103EE0002F910F900FBE0F901F9018951F920F9259
:103EF0000FB60F9211242F933F934F935F936F93BD
:103F00007F938F939F93AF93BF93EF93FF9386E637
:103F100093E00E947904FF91EF91BF91AF919F913F
:103F20008F917F916F915F914F913F912F910F9062
:103F30000FBE0F901F9018951F920F920FB60F9201
:103F400011242F938F939F93EF93FF93E091760328
:103F5000F09177038081E0917C03F0917D0382FDF5
:103F60001BC0908180917F038F5F8F7320918003AE
:103F7000821741F0E0917F03F0E0EA59FC4F958F02
:103F800080937F03FF91EF919F918F912F910F90DD
:103F90000FBE0F901F9018958081F4CF1F920F9243
:103FA0000FB60F9211242F933F934F935F936F930C
:103FB0007F938F939F93AF93BF93EF93FF938091E2
:103FC000B900887F803609F44AC0F0F5883209F4D8
:103FD000A7C018F5803109F49BC0B8F4882309F410
:103FE000F9C0883009F494C0FF91EF91BF91AF916F
:103FF0009F918F917F916F915F914F913F912F9101
:104000000F900FBE0F901F901895883109F488C04B
:10401000803251F780932E0314C0803409F49DC080
:1040200040F48033B9F38833F9F680932E0385EC9E
:10403000B0C0803509F485C0883509F496C088344D
:1040400099F60E945619D0CF883909F48CC038F5FA
:10405000883729F050F4883611F0803729F683E04C
:10406000809330031092840257C0883809F47BC0D3
:10407000803919F0803809F0B7CF809184028032FE
:1040800008F071C0E091840281E08E0F8093840279
:104090008091BB00F0E0EC59FD4F80833DC0803B38
:1040A00039F0E0F4803A09F479C0883A09F09CCFFD
:1040B00084E0809330031092630210926202E091D8
:1040C0008702F091880209958091620281110FC0E8
:1040D00081E0809362021092420209C0803C09F4A0
:1040E000A6CF883C09F4A3CF883B09F07DCFE091AF
:1040F000630281E08E0F80936302F0E0EE5BFD4F80
:1041000080818093BB00909163028091620229C0FC
:1041100080910B038093BB0085EC8093BC0064CF3F
:1041200090912D0380912C03981758F5E0912D0361
:1041300081E08E0F80932D03F0E0E45FFC4F8081DF
:10414000E9CFE0912D0381E08E0F80932D038091C4
:10415000BB00F0E0E45FFC4F808390912D038091E1
:104160002C039817C8F285E8D8CFE0912D0381E0A1
:104170008E0F80932D038091BB00F0E0E45FFC4F35
:10418000808380912F0381115CCF81E080930A03AB
:1041900084EA8093BC001092300326CF85EC809394
:1041A000BC001092300380918402803230F4E091A0
:1041B0008402F0E0EC59FD4F10826091840270E0BF
:1041C000E0918502F091860284E692E009951092D2
:1041D00084020ACF10922E0334CF1F920F920FB693
:1041E0000F9211242F933F934F935F936F937F937D
:1041F0008F939F93AF93BF93CF93DF93EF93FF93EF
:1042000080912002C0913305D0E087FF24C0109236
:10421000850010928400809120028F5F809320029D
:1042200080912002082E000C990B8C179D0724F416
:10423000809120028C30C4F180918400909185009F
:10424000049680349C4908F47AC08091840090914F
:104250008500049676C080912002082E000C990BF0
:104260008C179D07C4F6E09120028E2FEE0F990B5C
:10427000FC01EE0FFF1FE80FF91FE15FFA4F80818D
:1042800086FFC9CFE09120028E2FEE0F990BFC0123
:10429000EE0FFF1FE80FF91FE15FFA4F808160E02A
:1042A0008F730E943E01B7CF20918400309185002A
:1042B000E09120028E2FEE0F990BFC01EE0FFF1FF5
:1042C000E80FF91FE15FFA4F81819281820F931FFE
:1042D0009093890080938800E09120028E2FEE0F4A
:1042E000990BFC01EE0FFF1FE80FF91FE15FFA4F7A
:1042F000808186FF11C0E09120028E2FEE0F990B76
:10430000FC01EE0FFF1FE80FF91FE15FFA4F8081FC
:1043100061E08F730E943E01FF91EF91DF91CF9199
:10432000BF91AF919F918F917F916F915F914F91CD
:104330003F912F910F900FBE0F901F90189580E422
:104340009CE990938900809388008FEF80932002EE
:10435000E3CF1F920F920FB60F9211242F933F932A
:104360004F935F936F937F938F939F93AF93BF937D
:10437000CF93DF93EF93FF932091410430E0F90155
:10438000E458FF4F8491F901E255FF4FD491F901B0
:10439000E656FF4FC491CC2379F081110E9415019C
:1043A000EC2FF0E0EE0FFF1FE057FF4FA591B49107
:1043B000EC91ED2381E009F480E0209144043091F8
:1043C00045042F5F3F4F3093450420934404909160
:1043D0000E05943618F095E09093420490914204B3
:1043E000933009F44CC0E0F4923011F19091430401
:1043F000992319F081116BC02D9AFF91EF91DF91F4
:10440000CF91BF91AF919F918F917F916F915F916C
:104410004F913F912F910F900FBE0F901F901895C5
:10442000943009F448C0953009F78111DFCF09C0F5
:104430008111DCCF209144043091450424363105AC
:1044400028F41092450410924404D0CF10920E0527
:10445000E0910E0591E09E0F90930E05F0E0209103
:10446000440430914504EE0FFF1FEF5BFB4F368392
:104470002583109245041092440493E019C08130C2
:1044800009F0B4CFE0910E0591E09E0F90930E05D8
:10449000F0E02091440430914504EE0FFF1FEF5BE4
:1044A000FB4F36832583109245041092440494E018
:1044B000909342049BCF882359F220914404309179
:1044C00045042536310508F491CF95E0F1CF2D98BC
:1044D00094CFCF92DF92EF92FF920F931F93E82F2A
:1044E000F92F05C0015011092109310961F19081AD
:1044F00096239417B9F305C0015011092109310918
:1045000011F1908196239413F7CFC12CD12CE12C7B
:10451000F12C0AC08FEFC81AD80AE80AF80A0C155D
:104520001D052E053F0579F080818623841791F3C0
:104530006C2D7D2D8E2D9F2D1F910F91FF90EF9053
:10454000DF90CF90089560E070E080E090E01F91F0
:104550000F91FF90EF90DF90CF900895CF9310923E
:1045600069031092680388EE93E0A0E0B0E08093C6
:104570006A0390936B03A0936C03B0936D0323E8DD
:1045800031E0309367032093660325EC30E03093ED
:1045900073032093720324EC30E03093750320936F
:1045A000740320EC30E0309377032093760321EC02
:1045B00030E0309379032093780322EC30E030939D
:1045C0007B0320937A0326EC30E030937D03209325
:1045D0007C0310927F03109280031092810310924B
:1045E00082031092060410920504809307049093AE
:1045F0000804A0930904B0930A0485E991E090931C
:104600000404809303049FEF90930F04109211040D
:104610001092100410921B0410921A044FEF5FEFD7
:10462000BA014093160450931704609318047093D2
:10463000190488E680933204109222041092230415
:10464000109224041092250410922A0410922B0434
:1046500010922C0410922D0410922E0410922F040C
:104660001092300410923104809133058C3008F0A0
:1046700074C091E0980F909333058093340590E0D7
:10468000FC01EE0FFF1FE80FF91FE15FFA4F88EB07
:104690009BE09283818389E08093410410924304DC
:1046A00010925B0510925C0510925D0510925E05FC
:1046B00010925F0581E08093600580E090E0A0EEBD
:1046C000B0E48093610590936205A0936305B09375
:1046D0006405C4E1C09365051092670510926605F4
:1046E000109269051092680510926B0510926A0588
:1046F00050E040E061EB71E086E695E00E94221810
:104700008AEF80936C0580936E0582E593E0909329
:10471000700580936F0586EB93E09093720580930C
:104720007105C0938C0510923D0510923E051092C4
:104730003F051092400510924505109246051092D3
:104740004705109248051092490510924A051092AB
:104750004B0510924C05CF910895909334059BCF53
:10476000CF93DF93CDB7DEB7AD970FB6F894DEBF2A
:104770000FBECDBF789484B5826084BD84B581605E
:1047800084BD85B5826085BD85B5816085BD80911C
:104790006E00816080936E00109281008091810094
:1047A000826080938100809181008160809381008C
:1047B000809180008160809380008091B10084604E
:1047C0008093B1008091B00081608093B0008091AF
:1047D0007A00846080937A0080917A00826080936E
:1047E0007A0080917A00816080937A0080917A00CB
:1047F000806880937A001092C100E0917603F09176
:10480000770382E08083E0917203F091730310825A
:10481000E0917403F09175038FEC808310927E0316
:10482000E0917A03F0917B0386E08083E091780346
:10483000F0917903808180618083E0917803F09129
:104840007903808188608083E0917803F091790317
:10485000808180688083E0917803F0917903808182
:104860008F7D808360E081E10E946C0161E085E0E2
:104870000E946C0161E086E00E946C0161E087E0CB
:104880000E946C0161E088E00E946C0161E083E0BD
:104890000E946C0160E679E08AE090E00E94A80145
:1048A0008AE090E00E9411028AE590E00E948D006B
:1048B00084EF91E00E94500A60E679E08BE090E09E
:1048C0000E94A8018BE090E00E9411028AE590E02E
:1048D0000E948D0084EF91E00E94500AE09134051F
:1048E0008E2F90E0FC01EE0FFF1FE80FF91FE15F34
:1048F000FA4F80818F7B808362E082E00E946C01AE
:104900008FE19AE090930201809301018091690008
:104910008C7F826080936900E89A80919E02811169
:1049200045C01092900210928F028FEF80939302F5
:1049300080939402809395028093960280939702CD
:104940008093980281E08093990210929B021092CA
:104950009A02109292021092910280915A039091C1
:104960005B03892B31F48DE892E090935B03809395
:104970005A03E0918B02F0918C02309721F08DE880
:1049800092E0958384838DE892E090938C028093EB
:104990008B0210929D0210929C0281E791E090930D
:1049A0008E0280938D0281E080939E02549A87E06C
:1049B00093E09093900280938F0281E090E0909337
:1049C0009B0280939A028091120490911304A0910B
:1049D0001404B0911504843C29E09207A105B105A7
:1049E00020F484EC99E0A0E0B0E08093120490936E
:1049F0001304A0931404B093150484E180930F046E
:104A0000F89482E08093B0008093B10094E6909394
:104A1000B3001092B20080937000789480934204A7
:104A200010920E058091410460E00E946C0160E0EC
:104A30008CE00E946C0161E08DE00E946C0160E0FE
:104A400080E10E946C0160E08FE00E946C0160E0F8
:104A50008EE00E946C0110928A02109289021092DC
:104A60003703109259030E942F058FEE93E0909325
:104A700088028093870280EF93E090938602809370
:104A800085027AE0872E912CA12CB12C08EE13E040
:104A90009E012F5F3F4F41E065E7809132040E9405
:104AA0006A13882339F089818E7790E095958795F0
:104AB000809333041091330489EF91E00E9418171A
:104AC000212F30E050E040E019A26E0181E2C80ED3
:104AD000D11CCA01B901A50194010E943A35605D5B
:104AE000D6016E936D01211531054105510589F7F8
:104AF000109719F0CD010E94181788EC91E00E94E0
:104B000018176AE070E080E090E00E94A902F39438
:104B1000BBE0FB1691F111501E3F08F0B7CF01E04A
:104B200023E042E06BE6809132040E949A1600E096
:104B300022E044E06BE1809132040E949A1622E068
:104B400044E06CE1809132040E949A16F0903204A5
:104B500008EE13E09E012F5F3F4F41E06BE68F2D83
:104B60000E946A1389818F7B89838CA3AE014C5D7F
:104B70005F4F6BE68F2D0E94E4060E94FA1410929C
:104B8000EA021092E90288E19FE00FB6F894A89536
:104B9000809360000FBE9093600044244A94542C8C
:104BA000320122242394312CA8950E94DB0200912B
:104BB000A6021091A7022091A8023091A902601BC1
:104BC000710B820B930B6B3071058105910508F415
:104BD00056C00E94DB026093A6027093A7028093E6
:104BE000A8029093A90281E10E947202BC01990F70
:104BF000880B990B0E94B4332AE939E949E15DE356
:104C00000E9413346B017C012AE037ED43EA5DE337
:104C10000E9413349B01AC01C701B6010E946C35A0
:104C200060934D0570934E0580934F05909350050A
:104C300060914D0570914E0580914F059091500502
:104C400020916105309162054091630550916405A2
:104C50000E94AD3387FFF9C0809105019091060154
:104C600001969093060180930501843F914039F4A9
:104C700081E080935B0510920601109205018EE0A1
:104C80000E94720290935A058093590540916F05D6
:104C9000509170058091590590915A05092E000C8C
:104CA000AA0BBB0B00916E0510E030E020E08017EE
:104CB0009107A207B30744F070E060E021E04817D5
:104CC00059076A077B070CF420E020935D058FE00D
:104CD0000E947202909358058093570540916F058A
:104CE000509170058091570590915805092E000C40
:104CF000AA0BBB0B00916E0510E030E020E080179E
:104D00009107A207B30744F070E060E021E0481784
:104D100059076A077B070CF420E020935E0580E1C9
:104D20000E947202909356058093550540916F053D
:104D3000509170058091550590915605092E000CF3
:104D4000AA0BBB0B00916E0510E030E020E080174D
:104D50009107A207B30744F070E060E021E0481734
:104D600059076A077B070CF420E020935F050E9437
:104D70007B0F8091AA0290910701981751F08093C0
:104D80000701823009F473C008F062C0813009F471
:104D900069C00E94950C80915B058823E9F00E9410
:104DA000DB020091B1021091B2022091B302309166
:104DB000B402601B710B820B930B693B7B40810536
:104DC000910550F00E94DB026093B1027093B20231
:104DD0008093B3029093B4020E94DB020091B1026F
:104DE0001091B2022091B3023091B402DC01CB01E8
:104DF000801B910BA20BB30B20915B05B7FD11C07B
:104E0000853FE1E09E07A105B10514F421113DC0E5
:104E1000845F9140A109B109853C9940A105B10584
:104E200010F021116DC08091E9029091EA02823068
:104E3000910509F4E0C008F074C0009709F47EC041
:104E400040E050E80197B1F15BC010925B0517CFCD
:104E50008330A1F0843009F09CCF1092EA021092C6
:104E6000E90297CF3092EA022092E90292CF22E043
:104E700030E03093EA022093E9028BCF83E090E0A8
:104E80009093EA028093E90284CF8A3F9105A105BD
:104E9000B105C8F4883C9105A105B10590F48436AC
:104EA0009105A105B10540F4C297A105B10548F0EF
:104EB00040E050E060E03EC086399105A105B105B3
:104EC000B8F74FEFF6CF803921E09207A105B10581
:104ED00060F48E3531E09307A105B10590F78C326F
:104EE0009140A105B10520F7ECCF823CF1E09F078E
:104EF000A105B105E8F2843F9140A105B10508F391
:104F00008091E9029091EA02039709F040C18091F3
:104F10006005811177C060E088E090E00E9472181F
:104F2000D4C08330910509F469C04EEE52E86EEEAC
:104F3000049731F782E00E94EC0BE2CF2223C9F004
:104F40004FEF50E060E082E00E94EC0B6EE170E019
:104F500080E090E00E94A90240E050E060E082E042
:104F60000E94EC0B6EE170E080E090E00E94A902EC
:104F7000C7CF0E94DB020091AD021091AE022091DA
:104F8000AF023091B002601B710B820B930B6B3040
:104F9000710581059105C0F01091AB020E94DB0202
:104FA0006093AD027093AE028093AF029093B00213
:104FB0008091AC02811117C01F5F1093AB021436B1
:104FC00019F481E08093AC028EEE8093070392E89F
:104FD00090930803809309038091AB0280930F04A0
:104FE0000E94570B8DCF11501093AB021111ECCFD3
:104FF0001092AC02E9CF4FEF5FEF5CCF40E050E0A2
:105000006FEF98CF8AEB92E00E9425178091BA0249
:105010009091BB02459770F481E080930A018093E0
:10502000090180910801813009F0A1C064E690E097
:1050300080E074CF60E088E090E00E947218809178
:105040000901833009F082C0809108019091B90272
:10505000981799F08093B902813009F055C00E94E9
:10506000DB026093B5027093B6028093B70290930F
:10507000B80280E590E00E94CB0A0E94DB0200911A
:10508000B5021091B6022091B7023091B802601BB0
:10509000710B820B930B693E734081059105A8F05B
:1050A00083E080930901809108018F5F809308015C
:1050B00080910A018F5F80930A01853030F081E092
:1050C0008093080185E080930A018091E902909124
:1050D000EA02029709F09CC08091600581115CC0D2
:1050E00060E088E090E00E9472188091E90290915F
:1050F000EA02019709F036C2809160058111AFC0C4
:1051000060E088E090E0D3C1823069F40E94DB0265
:105110006093B5027093B6028093B7029093B80281
:1051200084E190E0A8CF833009F499CF843009F06E
:10513000A4CF0E94DB026093B5027093B602809305
:10514000B7029093B80286E990E095CF813009F0DC
:1051500094CF82E0809309010E94DB026093B50244
:105160007093B6028093B7029093B80286CF8230D4
:1051700021F466E983E090E0D1CE833009F456CF84
:10518000843009F0A2CF66E982E090E0C7CE1092A9
:10519000BB021092BA0299CF80910B01882331F0A3
:1051A0008AE590E00E94CB0A10920B01CE01019695
:1051B0000E94251789819A81459770F560E088E003
:1051C00090E00E9472180EE110E0FF24F394C801F1
:1051D0000E94CB0A81E090E00E94500ACE01019625
:1051E0000E94251789819A814597D0F083E0F816AF
:1051F00059F195E0F91661F1A1E0FA1205C066E9EE
:1052000083E090E00E94721882E390E00E94500ACE
:1052100081E080930B0169CF66E990E080E063CF85
:1052200060E088E090E00E947218045C1F4FB5E0D7
:10523000FB1212C066E981E090E00E94721884EFD0
:1052400091E00E94500ADBCF66E990E080E0DACF7F
:1052500066E982E090E0D6CFF394F394B8CF8091E2
:105260006F0590917005B0E0A0E040916E0550E0B0
:1052700070E060E00091570510915805012E000C78
:10528000220B330B04171507260737070CF4C0C091
:1052900080179107A207B3070CF4BAC064E690E048
:1052A00080E00E94721881E080930D0180930C01D0
:1052B0008091E9029091EA028430910509F064C17D
:1052C00060916C058091E7029091E8020E9472184B
:1052D00086E494E0909304038093030380910E0589
:1052E00090E09093060380930503809142048530FB
:1052F00009F072C08091480490914904885891093E
:105300008D35910508F0ADC180910E05843009F00E
:105310007CC180914A0490914B048097479708F094
:1053200074C180914C0490914D040997099708F03D
:105330006CC110920203109201034092FD02509240
:10534000FE026092FF02709200033092FA022092F5
:10535000F9020E94DB026093C6027093C702809339
:10536000C8029093C9028091FD029091FE02A09123
:10537000FF02B09100038F34E0EB9E07EFEFAE0722
:10538000B10509F405C708F080C6873C28E39207F9
:105390002FEFA207B10509F409C708F045C68F3EF3
:1053A000E0E19E07EFEFAE07B10509F4CAC608F0C9
:1053B00022C68B3B2DE1920721E5A207B10509F436
:1053C0004AC68D3F9240AF4FB10509F4DBC682E07B
:1053D0008093420410920E058091C502882309F43F
:1053E00016C7EDA1E250ED3008F0E4C6F0E0E5505C
:1053F000F64D0C94C936703175317C3183318A3168
:105400008F3196319D31A931B131BD31C531C731AF
:105410000091590510915A05012E000C220B330BF7
:10542000041715072607370734F080179107A207DE
:10543000B3070CF03FC00091550510915605012EA1
:10544000000C220B330B0417150726073707B4F59A
:1054500080910D01882389F010920D010E94DB02DA
:105460006093BC027093BD028093BE029093BF0212
:1054700060E088E090E00E9472180E94DB02C09019
:10548000BC02D090BD02E090BE02F090BF026C1949
:105490007D098E099F09693C710581059105B8F464
:1054A00080910C01882341F164E683E090E00E9442
:1054B0007218FECE64E683E090E0F3CE8017910789
:1054C000A207B3072CF264E682E090E0EACE0E94E5
:1054D000DB0200EC19EF2FEF3FEF0C191D092E092D
:1054E0003F09DC01CB01800F911FA21FB31F81393F
:1054F0009140A105B105A0F20E94DB0208E31FEF75
:105500002FEF3FEF0C191D092E093F09DC01CB01DC
:10551000800F911FA21FB31F89379540A105B105C8
:10552000C8F00E94DB0208E414EF2FEF3FEF0C19E4
:105530001D092E093F09DC01CB01800F911FA21F1D
:10554000B31F853F9140A105B10508F0B1CE10927F
:105550000C01D6CD80910C01882319F364E682E01A
:1055600090E0A5CF80910D018111A2CE81E08093C2
:105570000C0180930D011092BC021092BD0210929A
:10558000BE021092BF0294CE892B09F0A1CE60E03A
:1055900088E090E00E94721880910E01882309F43F
:1055A00097CE0E94DB020091C1021091C2022091AD
:1055B000C3023091C402601B710B820B930B6531E7
:1055C00071058105910508F483CE0E94DB0260938A
:1055D000C1027093C2028093C3029093C4020E94DE
:1055E0007B0F882379F08091C0028F5F8093C00287
:1055F0008091C0028B3008F46BCE10920E010E9495
:10560000FA1466CE1092C002F3CF80910E05843456
:1056100040F180914A0490914B04825491098E97F5
:1056200000F590E080E040E050E0BA01FC01E45B6E
:10563000FB4F20813181295031092930310588F40F
:10564000FC01E25BFB4F2081318126513109213180
:10565000310530F120813181265031092730310563
:10566000C0F180910E058A3108F468C0809146042B
:1056700090914704843F914088F510920203109264
:1056800001034092FD025092FE026092FF0270926E
:10569000000389E090E09093FA028093F90259CEDA
:1056A000440F551F661F771F41600496803891058F
:1056B00009F0BCCFA0E2B0E0B0930203A0930103D5
:1056C0004093FD025093FE026093FF02709300032B
:1056D0003CCE440F551F661F771FE7CF80914804CB
:1056E0009091490485974B9748F5E1E4F4E082E016
:1056F00090E040E050E0BA01A0910E059C012F5FC0
:105700003F4FA217130609F00CF4F2C02185328531
:10571000275031092730310508F0EAC02385348548
:10572000235131092F30310508F4D5C02385348544
:105730002A5031092930310508F4D5C080910E0571
:105740008A3108F43FC0809146049091470480322A
:10575000934008F492CF8091480490914904C697F1
:10576000869780F580914A0490914B04C69786975E
:1057700048F5E1E4F4E083E090E040E050E0BA0175
:10578000A0910E059C012F5F3F4FA217130609F051
:105790000CF4D8C0238534852C5031092B303105C9
:1057A00008F0D0C025853685255231092B313105C9
:1057B00008F4BBC0258536852C5031092A303105C7
:1057C00008F4BBC080910E05823238F18091480404
:1057D000909149040697079700F5E1E4F4E082E030
:1057E00090E040E050E0BA01DC01119620910E05F6
:1057F0002A171B0609F00CF4D1C0218532852E51E1
:1058000031092731310508F4B4C0218532852C5087
:1058100031092B30310508F4BBC080910E058D3065
:1058200008F4EDC03BA22AA21A82198249E753E08C
:10583000BE016F5F7F4FCE0182960E947803892B55
:1058400009F0DDC049E753E0BE016F5F7F4FCE0135
:1058500082960E947803019709F0D1C049E753E08E
:10586000BE016F5F7F4FCE0182960E9478038C014C
:10587000892B09F0C4C0812C912C540120910E0574
:105880008AA19BA12817190609F00CF4A9C049E7C1
:1058900053E0BE016F5F7F4FCE0182960E94780376
:1058A0007C0149E753E0BE016F5F7F4FCE018296D6
:1058B0000E94780321E0E216F10409F088C0892BE8
:1058C00009F09DC0880C991CAA1CBB1C689480F828
:1058D0000F5F1F4FD3CF440F551F661F771F4160C7
:1058E0000296349609CF440F551F661F771FF8CFD5
:1058F00001979595879590930203809301030C97E8
:105900002CF4109202031092010318CF4093FD0271
:105910005093FE026093FF0270930003E2E0F0E018
:10592000F093FA02E093F90214CD440F551F661F5D
:10593000771F41600296349623CF440F551F661F90
:10594000771FF8CF019795958795909302038093E1
:1059500001030C972CF4109202031092010332CF32
:105960004093FD025093FE026093FF027093000388
:1059700090CE440F551F661F771F416023853485E5
:105980003496235031092530310538F402962CCF56
:10599000440F551F661F771FF1CFCD0101979595D5
:1059A0008795909302038093010340972CF4109203
:1059B00002031092010331CF4093FD025093FE0287
:1059C0006093FF02709300038AE090E064CEEF28BA
:1059D000B1F40197A1F4880C991CAA1CBB1C78CFC8
:1059E00010930203009301038092FD029092FE0245
:1059F000A092FF02B092000383E090E04CCE809131
:105A0000050390910603181619060CF082C0E09168
:105A10000303F09104033BA22AA282819381899718
:105A20004E9708F076C0A2E0B0E0BBA3AAA38481A1
:105A300095810B970A9708F06CC0E3E0F0E0FBA3B8
:105A4000EAA31A8219824CEB51E0BE016F5F7F4FCF
:105A5000CE0182960E9478038C01892B09F059C0EF
:105A60004CEB51E0BE016F5F7F4FCE0182960E94EA
:105A70007803019709F04DC0812C912C540120919D
:105A80000503309106038AA19BA1821793070CF0AE
:105A9000E2C04CEB51E0BE016F5F7F4FCE018296BA
:105AA0000E9478037C010330110539F14CEB51E081
:105AB000BE016F5F7F4FCE0182960E9478036C011A
:105AC0000330110561F44CEB51E0BE016F5F7F4F75
:105AD000CE0182960E947803C816D906D1F4E1144B
